:1000000072C000009EC000009CC000009AC00000AA
:1000100098C0000096C0000094C0000092C000008C
:1000200090C000008EC000008CC000008AC000009C
:1000300088C0000086C0000084C0000082C00000AC
:1000400080C000007EC000007CC000007AC00000BC
:1000500078C0000076C0000074C0000072C00000CC
:1000600070C000006EC000006CC000006AC00000DC
:1000700068C0000066C0000064C0000062C00000EC
:1000800060C000005EC000005CC000005AC00000FC
:1000900058C0000056C0000054C0000052C000000C
:1000A00050C000004EC000004CC000004AC000001C
:1000B00048C0000046C0000044C0000042C000002C
:1000C00040C000003EC000003CC000003AC000003C
:1000D00038C0000036C0000034C0000032C000004C
:1000E00030C00000D70511241FBECFEFD1E2DEBF24
:1000F000CDBF00E00CBF13E0A0E0B2E0E4E3FCE021
:1001000000E00BBF02C007900D92AE31B107D9F7E6
:1001100023E0AEE1B3E001C01D92A332B207E1F7E4
:1001200010E0C3E7D0E000E005C021970109802F6F
:10013000FE0143D5C237D10780E00807B1F71AD5D1
:1001400077C55ECF08958EB18F70962F907F892BE3
:100150008EB98EB18B7F8EB98EB188608EB982E0F8
:100160008A95F1F700C08EB1877F8EB98FE891E054
:100170000197F1F700C000008EB190E1699FB001D6
:1001800011248F70682B6EB98EB18B7F8EB98EB1B2
:1001900088608EB982E08A95F1F700C08EB1877FC2
:1001A0008EB98FE99FE00197F1F700C00000089534
:1001B0008EB18F70962F907F892B8EB98EB184600F
:1001C0008EB98EB188608EB982E08A95F1F700C051
:1001D0008EB1877F8EB98FE891E00197F1F700C06B
:1001E00000008EB190E1699FB00111248F70682BDF
:1001F0006EB98EB184608EB98EB188608EB982E09E
:100200008A95F1F700C08EB1877F8EB98FE99FE0A4
:100210000197F1F700C000000895CF93DF93EC0140
:100220008FEF8DB98FE39CE90197F1F700C00000D3
:1002300062E0CE0188DF68E2CE0185DF6CE0CE01AE
:1002400082DF66E0CE017FDF61E0CE017CDF8FE9F7
:100250009FE00197F1F700C00000DF91CF91089572
:10026000EF92FF920F931F93CF93DF937C018B014B
:10027000C0E0D0E0F801EC0FFD1F6081662321F0A3
:10028000C70196DF2196F6CFDF91CF911F910F9195
:10029000FF90EF9008950F931F93CF93DF938C01FE
:1002A000E901611107C0403128F44F70642F606884
:1002B0004ADF09C0613039F4403128F44F70642FAF
:1002C000606CC80140DFBE01C801CADFDF91CF9179
:1002D0001F910F910895CF93DF93EC0161E033DF1D
:1002E0008FE99FE00197F1F700C0000060E8CE01C0
:1002F0002ADFDF91CF910895019741F46F3F7F4F3F
:1003000029F461E070E08EE193E01CCF08950F9333
:100310001F93CF93DF938B01EA0190932203809385
:1003200021038EE193E0D7DF2DE132E040E060E091
:100330008EE193E0B0DF980141E060E08EE193E070
:10034000AADF9E0140E061E08EE193E0A4DF2FE7A9
:100350008AE196E0215080409040E1F700C0000023
:10036000DF91CF911F910F910895EF92FF921F930C
:10037000CF93DF93162F7A01E901909322038093A4
:1003800021038EE193E0A7DF2DE132E040E061E060
:100390008EE193E080DF9701412F60E08EE193E0F2
:1003A0007ADF9E0141E061E08EE193E074DF2FE7A8
:1003B0008AE196E0215080409040E1F700C00000C3
:1003C000DF91CF911F91FF90EF9008958EE193E020
:1003D00024DF2FE132E044E060E08EE193E05BDF78
:1003E0002FEF89E698E1215080409040E1F700C06E
:1003F00000008EE193E06FDF48E252E063E372E0D9
:1004000081E090E084CF0895CF93DF9300D01F92D6
:10041000CDB7DEB780912103909122038130910501
:1004200041F440E652E060E472E084E090E06FDF87
:100430003EC182309105E9F480911F039091200321
:100440009C012F5F3F4FA901440F551F440F551FBB
:10045000420F531F40505E4FBC01660F771F660F5F
:10046000771F680F791F60507E4F81E190E04FDF6A
:100470001EC18330910509F58EE193E02CDF20E564
:1004800032E040E060E08EE193E005DF21E632E01B
:1004900040E061E08EE193E0FEDE80E190E0909349
:1004A0002203809321032FE78FE492E121508040C3
:1004B0009040E1F700C00000FAC08430910551F48B
:1004C00029E632E048E752E062E070E085E090E043
:1004D0004CDFEDC08530910541F448E252E063E322
:1004E00072E081E090E013DFE2C08B30910599F477
:1004F0008EE193E0F0DE2FEF89E698E12150804015
:100500009040E1F700C0000040E652E0BA0181E10E
:1005100090E0FDDECCC08630910551F425E832E054
:100520004AE852E063E070E08EE090E01EDFBFC07A
:100530008730910559F58EE193E0CDDE2EEB32E068
:1005400045E060E08EE193E0A6DE4AE0BE016F5F29
:100550007F4F80911B0290911C0237D39E012F5F29
:100560003F4F47E061E08EE193E095DE8FE090E061
:1005700090932203809321032FEF84E39CE021508A
:1005800080409040E1F700C0000091C088309105A4
:1005900041F445E952E06FE972E08CE090E0B7DEAB
:1005A00086C08930910551F425E832E04AE852E0EE
:1005B00063E070E08EE090E0D8DE79C08A3091058B
:1005C00051F425E832E04AE852E063E070E08EE062
:1005D00090E0CBDE6CC08C30910551F425E832E020
:1005E0004AE852E063E070E08EE090E0BEDE5FC07B
:1005F0008D30910551F425E832E04AE852E063E09D
:1006000070E08EE090E0B1DE52C08E309105E9F4EA
:1006100080911F03909120039C012F5F3F4FA90100
:10062000440F551F440F551F420F531F40505E4F3C
:10063000BC01660F771F660F771F680F791F605028
:100640007E4F81E190E063DE32C08F30910541F44E
:100650004AEA52E067EB72E087E090E058DE27C09C
:1006600080319105D9F48EE193E035DE25EC32E05E
:1006700040E060E08EE193E00EDE2FE78FE492E150
:10068000215080409040E1F700C0000048E252E075
:1006900063E372E081E090E03ADE09C041973CF00C
:1006A00047EB52E066ED72E086E090E030DE0F90BE
:1006B0000F900F900F90DF91CF910895CF93DF931C
:1006C00000D01F92CDB7DEB7809121039091220315
:1006D0008130910541F443E352E065EE72E083E03E
:1006E00090E015DEE3C08230910541F448E252E02B
:1006F00063E372E081E090E00ADED8C083309105C8
:1007000041F445EE52E068E272E082E090E0FFDD05
:10071000CDC08430910541F440E652E060E472E0DF
:1007200084E090E0F4DDC2C08730910541F447EBEE
:1007300052E066ED72E086E090E0E9DDB7C0883017
:10074000910541F44AEA52E067EB72E087E090E0FD
:10075000DEDDACC08930910541F443EF52E06AEA36
:1007600072E088E090E0D3DDA1C08A30910541F4C9
:1007700040E053E063EF72E089E090E0C8DD96C0AE
:100780008B30910541F44DE053E060E073E08AE086
:1007900090E0BDDD8BC08D30910541F445E952E01C
:1007A0006FE972E08CE090E0B2DD80C08F3091059F
:1007B000B9F580911B0290911C028730910529F0B8
:1007C000019690931C0280931B028EE193E083DDDF
:1007D0002EEB32E045E060E08EE193E05CDD4AE044
:1007E000BE016F5F7F4F80911B0290911C02EDD183
:1007F0009E012F5F3F4F47E061E08EE193E04BDDCC
:100800008FE090E090932203809321032FEF84E305
:100810009CE0215080409040E1F700C0000046C0BD
:1008200081319105E9F480911F03909120039C018F
:100830002F5F3F4FA901440F551F440F551F420F13
:10084000531F40505E4FBC01660F771F660F771F26
:10085000680F791F60507E4F81E190E058DD26C01F
:10086000823191051CF140911F03509120039A01A0
:10087000215031093093200320931F030197909357
:10088000220380932103BA01660F771F660F771F3B
:10089000460F571F40505E4FB901660F771F660F16
:1008A000771F620F731F60507E4F31DD0F900F90E6
:1008B0000F900F90DF91CF910895CF93DF9300D0E9
:1008C0001F92CDB7DEB78091210390912203813032
:1008D000910541F445EE52E068E272E082E090E07A
:1008E00016DDD0C08230910541F443E352E065EE5D
:1008F00072E083E090E00BDDC5C08330910541F4E8
:1009000048E252E063E372E081E090E000DDBAC0CB
:100910008630910541F44AEA52E067EB72E087E0E5
:1009200090E0F5DCAFC08730910541F443EF52E031
:100930006AEA72E088E090E0EADCA4C088309105C1
:1009400041F440E053E063EF72E089E090E0DFDCE7
:1009500099C08930910541F44DE053E060E073E0C7
:100960008AE090E0D4DC8EC08A30910541F440E604
:1009700052E06DE073E08BE090E0C9DC83C08C3026
:10098000910541F440E652E065E972E08DE090E0C7
:10099000BEDC78C08F309105B9F580911B02909133
:1009A0001C028730910529F0019690931C028093D8
:1009B0001B028EE193E08FDC2EEB32E045E060E03D
:1009C0008EE193E068DC4AE0BE016F5F7F4F80916B
:1009D0001B0290911C02F9D09E012F5F3F4F47E010
:1009E00061E08EE193E057DC8FE090E0909322038A
:1009F000809321032FEF84E39CE0215080409040BE
:100A0000E1F700C000003EC081319105DCF120918A
:100A1000190230911A022150310960911F0370911F
:100A20002003621773076CF09B01220F331F220F04
:100A3000331F620F731F60507E4F40E652E067DC49
:100A400021C06F5F7F4F7093200360931F03019657
:100A500090932203809321039B012F5F3F4FA901B5
:100A6000440F551F440F551F420F531F40505E4FF8
:100A70009B01220F331F220F331F620F731F605021
:100A80007E4F45DC0F900F900F900F90DF91CF912C
:100A9000089580912103909122039C0121503109F6
:100AA0002330310540F448E252E063E372E081E034
:100AB00090E02DCC08959C0124503109223031055D
:100AC00040F448E252E063E372E081E090E01FCC42
:100AD00008958131910541F447EB52E068E272E0FC
:100AE00082E090E014CC08959C0126503109263014
:100AF0003105E8F480911F03909120039C012F5F42
:100B00003F4FA901440F551F440F551F420F531F5C
:100B100040505E4FBC01660F771F660F771F680F4E
:100B2000791F60507E4F81E190E0F1CB08959C01E8
:100B30002C5031092230310540F443EF52E06AEA8B
:100B400072E088E090E0E3CB08958231910541F4B2
:100B50004AEA52E067EB72E087E090E0D8CB089574
:100B6000409739F443E352E065EE72E083E090E0B1
:100B7000CECB08952BDC10920101109200018091E0
:100B8000000183FF02C09ADDFACF8091000184FF4B
:100B900002C093DEF4CF8091000185FF02C034DCF7
:100BA000EECF8091000186FFEACF73DFE8CF6FEFD1
:100BB0007FEF81E090E0A0CB0895EE0FFF1F881F2C
:100BC0008BBF0790F691E02D1994BB274A3031F482
:100BD000992322F4BDE2909581959F4F01C0BB27D8
:100BE000FB015527AA27880F991FAA1FA41710F0E9
:100BF000A41B83955051B9F7A05DAA3308F0A95DF5
:100C0000A193009779F7B111B1931192CB0100C074
:100C1000DC01FC01672F71917723E1F7329704C063
:100C20007C916D9370836291AE17BF07C8F30895EE
:040C3000F894FFCF66
:100C3400415544310041554432004155443300414B
:100C4400554434004155443500050005003E005725
:100C5400656C636F6D6521005265636F7264696EC4
:100C64006773005265636F726420566F6963650031
:100C74005374617274205265636F7264696E6700A5
:100C8400436F6E6669726D20666163746F7279205A
:100C9400007265736574203F0053746F7020526551
:100CA400636F7264696E67005265636F7264696E24
:100CB400672E2E2E0053746F7000506C6179696E2C
:100CC400672E2E2E004C6F7720506974636800489D
:100CD400696768205069746368004368616E67657A
:100CE400205069746368004368616E676520566FBD
:100CF4006C756D65005265736574696E6720537514
:100D0400636365737300506C6179205265636F721D
:100D140064696E6700466163746F7279205265730B
:100D2400657400496E636C756465204563686F0083
:100D34004661737420466F72776172640044656C17
:0E0D44006574655265636F7264696E670000C6
:00000001FF
