:1000000072C000009EC000009CC000009AC00000AA
:1000100098C0000096C0000094C0000092C000008C
:1000200090C000008EC000008CC000008AC000009C
:1000300088C0000086C0000084C0000082C00000AC
:1000400080C000007EC000007CC000007AC00000BC
:1000500078C0000076C0000074C0000072C00000CC
:1000600070C000006EC000006CC000006AC00000DC
:1000700068C0000066C0000064C0000062C00000EC
:1000800060C000005EC000005CC000005AC00000FC
:1000900058C0000056C0000054C0000052C000000C
:1000A00050C000004EC000004CC000004AC000001C
:1000B00048C0000046C0000044C0000042C000002C
:1000C00040C000003EC000003CC000003AC000003C
:1000D00038C0000036C0000034C0000032C000004C
:1000E00030C000000F0611241FBECFEFD1E2DEBFEB
:1000F000CDBF00E00CBF13E0A0E0B2E0E4EAFCE01A
:1001000000E00BBF02C007900D92AE31B107D9F7E6
:1001100023E0AEE1B3E001C01D92A332B207E1F7E4
:1001200010E0C3E7D0E000E005C021970109802F6F
:10013000FE017BD5C237D10780E00807B1F7DFD0D9
:10014000AFC55ECF08958EB18F70962F907F892BAB
:100150008EB98EB18B7F8EB98EB188608EB985E0F5
:100160008A95F1F700008EB1877F8EB98FE193E019
:100170000197F1F700C000008EB190E1699FB001D6
:1001800011248F70682B6EB98EB18B7F8EB98EB1B2
:1001900088608EB985E08A95F1F700008EB1877F7F
:1001A0008EB98FE39FE10197F1F700C00000089539
:1001B0008EB18F70962F907F892B8EB98EB184600F
:1001C0008EB98EB188608EB985E08A95F1F700000E
:1001D0008EB1877F8EB98FE193E00197F1F700C070
:1001E00000008EB190E1699FB00111248F70682BDF
:1001F0006EB98EB184608EB98EB188608EB985E09B
:100200008A95F1F700008EB1877F8EB98FE39FE169
:100210000197F1F700C000000895CF93DF93EC0140
:100220008FEF8DB92FEF89EF90E021508040904003
:10023000E1F700C0000062E0CE0185DF68E2CE0198
:1002400082DF6CE0CE017FDF66E0CE017CDF61E023
:10025000CE0179DF8FE39FE10197F1F700C0000045
:10026000DF91CF910895EF92FF920F931F93CF9359
:10027000DF937C018B01C0E0D0E0F801EC0FFD1FA3
:100280006081662321F0C70193DF2196F6CFDF91CD
:10029000CF911F910F91FF90EF9008950F931F93AF
:1002A000CF93DF938C01E901611107C0403128F43D
:1002B0004F70642F606847DF09C0613039F4403106
:1002C00028F44F70642F606CC8013DDFBE01C80187
:1002D000CADFDF91CF911F910F910895CF93DF93E4
:1002E000EC0161E030DF8FE39FE10197F1F700C09F
:1002F000000060E8CE0127DFDF91CF910895CF9312
:10030000DF931F92CDB7DEB761E070E0CE010196BA
:1003100032D0CE0101968ED01092010110920001D0
:100320008091000183FF04C0CE01019619D2F8CF5D
:100330008091000184FF04C0CE01019611D3F0CF5B
:100340008091000185FF04C0CE01019697D0E8CFCF
:100350008091000186FFE4CFCE010196EED3E0CF7D
:10036000019741F46F3F7F4F29F461E070E08EE127
:1003700093E0E8CE089508950F931F93CF93DF93F2
:100380008A01E90170932203609321038EE193E0D7
:10039000A5DF2DE132E040E060E08EE193E07EDF1A
:1003A000980141E060E08EE193E078DF9E0140E05B
:1003B00061E08EE193E072DF2FEF84E39CE0215057
:1003C00080409040E1F700C00000DF91CF911F9185
:1003D0000F910895EF92FF920F931F93CF93C42F25
:1003E000790170932203609321038EE193E076DF1D
:1003F0002DE132E040E061E08EE193E04FDF9701D4
:100400004C2F60E08EE193E049DF980141E061E02C
:100410008EE193E043DF2FEF84E39CE021508040A6
:100420009040E1F700C00000CF911F910F91FF9025
:10043000EF900895CF93DF93EC018EE193E0EDDE32
:100440002FE132E044E060E08EE193E027DF2FEF20
:1004500083ED90E3215080409040E1F700C0000020
:100460008EE193E03BDF28E232E043E352E061E0DB
:1004700070E0CE0181DFDF91CF910895EF92FF927E
:100480000F931F93CF93DF9300D01F92CDB7DEB7AA
:100490007C0180912103909122038130910549F4E0
:1004A00020E632E040E452E064E070E0C70164DF3F
:1004B0004CC182309105F1F480911F03909120038B
:1004C0009C012F5F3F4FA901440F551F440F551F3B
:1004D000240F351F20503E4FAC01440F551F440FD1
:1004E000551F480F591F40505E4F61E170E0C70132
:1004F00043DF2BC18330910509F58EE193E0EEDEF9
:1005000020E532E040E060E08EE193E0C7DE21E6E6
:1005100032E040E061E08EE193E0C0DE80E190E017
:1005200090932203809321032FEF8EE994E22150D0
:1005300080409040E1F700C0000007C18430910581
:1005400059F409E612E028E732E042E050E065E0C5
:1005500070E0C7013FDFF9C08530910549F428E21A
:1005600032E043E352E061E070E0C70105DFEDC037
:100570008B309105A1F48EE193E0B0DE2FEF83ED97
:1005800090E3215080409040E1F700C0000020E659
:1005900032E0A90161E170E0C701EEDED6C086302D
:1005A000910559F405E812E02AE832E043E050E012
:1005B0006EE070E0C7010EDFC8C08730910559F5C5
:1005C0008EE193E08BDE2EEB32E045E060E08EE1E1
:1005D00093E064DE4AE0BE016F5F7F4F80911B02B3
:1005E00090911C022AD39E012F5F3F4F47E061E0AC
:1005F0008EE193E053DE8FE090E0909322038093AE
:1006000021032FEF89E698E1215080409040E1F7E7
:1006100000C000009AC08830910549F425E932E015
:100620004FE952E06CE070E0C701A6DE8EC0893071
:10063000910559F405E812E02AE832E043E050E081
:100640006EE070E0C701C6DE80C08A30910559F4C3
:1006500005E812E02AE832E043E050E06EE070E0A6
:10066000C701B8DE72C08C30910559F405E812E07C
:100670002AE832E043E050E06EE070E0C701AADE15
:1006800064C08D30910559F405E812E02AE832E0A3
:1006900043E050E06EE070E0C7019CDE56C08E3053
:1006A0009105F1F480911F03909120039C012F5F2D
:1006B0003F4FA901440F551F440F551F240F351FED
:1006C00020503E4FAC01440F551F440F551F480F9B
:1006D000591F40505E4F61E170E0C7014DDE35C0EB
:1006E0008F30910549F42AEA32E047EB52E067E0A7
:1006F00070E0C70141DE29C080319105E1F48EE14F
:1007000093E0ECDD25EC32E040E060E08EE193E048
:10071000C5DD2FEF8EE994E2215080409040E1F753
:1007200000C0000028E232E043E352E061E070E004
:10073000C70122DE0AC0419744F027EB32E046EDC4
:1007400052E066E070E0C70117DE0F900F900F9047
:100750000F90DF91CF911F910F91FF90EF9008952F
:10076000CF93DF9300D01F92CDB7DEB76091210306
:10077000709122036130710541F423E332E045EECC
:1007800052E063E070E0F8DDE4C06230710541F4EE
:1007900028E232E043E352E061E070E0EDDDD9C0F1
:1007A0006330710541F425EE32E048E252E062E048
:1007B00070E0E2DDCEC06430710541F420E632E045
:1007C00040E452E064E070E0D7DDC3C067307105FB
:1007D00041F427EB32E046ED52E066E070E0CCDD1C
:1007E000B8C06830710541F42AEA32E047EB52E0C4
:1007F00067E070E0C1DDADC06930710541F423EF01
:1008000032E04AEA52E068E070E0B6DDA2C06A3049
:10081000710541F420E033E043EF52E069E070E01D
:10082000ABDD97C06B30710541F42DE033E040E063
:1008300053E06AE070E0A0DD8CC06D30710541F4DA
:1008400025E932E04FE952E06CE070E095DD81C0CF
:100850006F307105B9F580911B0290911C028730B1
:10086000910529F0019690931C0280931B028EE162
:1008700093E034DD2EEB32E045E060E08EE193E082
:100880000DDD4AE0BE016F5F7F4F80911B029091AA
:100890001C02D3D19E012F5F3F4F47E061E08EE104
:1008A00093E0FCDC8FE090E090932203809321039F
:1008B0002FEF89E698E1215080409040E1F700C099
:1008C000000047C061317105E9F440911F03509168
:1008D00020039A012F5F3F4FB901660F771F660F04
:1008E000771F260F371F20503E4FBA01660F771F24
:1008F000660F771F460F571F40505E4F61E170E053
:100900003BDD27C06231710524F120911F03309136
:100910002003A901415051095093200340931F0324
:10092000615071097093220360932103F901EE0F66
:10093000FF1FEE0FFF1F2E0F3F1F20503E4FFA01EB
:10094000EE0FFF1FEE0FFF1F4E0F5F1F40505E4F59
:1009500013DD0F900F900F900F90DF91CF910895BE
:10096000CF93DF9300D01F92CDB7DEB76091210304
:10097000709122036130710541F425EE32E048E2C6
:1009800052E062E070E0F8DCD1C06230710541F401
:1009900023E332E045EE52E063E070E0EDDCC6C0F8
:1009A0006330710541F428E232E043E352E061E054
:1009B00070E0E2DCBBC06630710541F42AEA32E047
:1009C00047EB52E067E070E0D7DCB0C067307105FC
:1009D00041F423EF32E04AEA52E068E070E0CCDC18
:1009E000A5C06830710541F420E033E043EF52E0E8
:1009F00069E070E0C1DC9AC06930710541F42DE016
:100A000033E040E053E06AE070E0B6DC8FC06A306B
:100A1000710541F420E632E04DE053E06BE070E018
:100A2000ABDC84C06C30710541F420E632E045E96E
:100A300052E06DE070E0A0DC79C06F307105B9F56F
:100A400080911B0290911C028730910529F001963C
:100A500090931C0280931B028EE193E03FDC2EEB0F
:100A600032E045E060E08EE193E018DC4AE0BE0150
:100A70006F5F7F4F80911B0290911C02DED09E0120
:100A80002F5F3F4F47E061E08EE193E007DC8FE0AE
:100A900090E090932203809321032FEF89E698E161
:100AA000215080409040E1F700C000003FC061311C
:100AB0007105E4F12091190230911A022150310997
:100AC00040911F0350912003421753076CF09A0185
:100AD000220F331F220F331F420F531F40505E4F10
:100AE00020E632E049DC22C04F5F5F4F5093200385
:100AF00040931F036F5F7F4F709322036093210326
:100B00009A012F5F3F4FF901EE0FFF1FEE0FFF1FFE
:100B10002E0F3F1F20503E4FFA01EE0FFF1FEE0F2A
:100B2000FF1F4E0F5F1F40505E4F26DC0F900F904F
:100B30000F900F90DF91CF91089520912103309174
:100B40002203A901415051094330510540F428E2E4
:100B500032E043E352E061E070E00ECC0895A90179
:100B6000445051094230510540F428E232E043E359
:100B700052E061E070E000CC08952131310541F48C
:100B800027EB32E048E252E062E070E0F5CB0895F6
:100B9000A9014650510946305105E8F440911F0320
:100BA000509120039A012F5F3F4FB901660F771FC5
:100BB000660F771F260F371F20503E4FBA01660F72
:100BC000771F660F771F460F571F40505E4F61E13A
:100BD00070E0D2CB0895A9014C5051094230510523
:100BE00040F423EF32E04AEA52E068E070E0C4CB20
:100BF00008952231310541F42AEA32E047EB52E010
:100C000067E070E0B9CB08952031310539F423E372
:100C100032E045EE52E063E070E0AECB08956FEF56
:100C20007FEF81E090E09CCB0895EE0FFF1F881FBF
:100C30008BBF0790F691E02D1994BB274A3031F411
:100C4000992322F4BDE2909581959F4F01C0BB2767
:100C5000FB015527AA27880F991FAA1FA41710F078
:100C6000A41B83955051B9F7A05DAA3308F0A95D84
:100C7000A193009779F7B111B1931192CB0100C004
:100C8000DC01FC01672F71917723E1F7329704C0F3
:100C90007C916D9370836291AE17BF07C8F308957E
:040CA000F894FFCFF6
:100CA40041554431004155443200415544330041DB
:100CB400554434004155443500050005003E0057B5
:100CC400656C636F6D6521005265636F7264696E54
:100CD4006773005265636F726420566F69636500C1
:100CE4005374617274205265636F7264696E670035
:100CF400436F6E6669726D20666163746F727920EA
:100D0400007265736574203F0053746F70205265E0
:100D1400636F7264696E67005265636F7264696EB3
:100D2400672E2E2E0053746F7000506C6179696EBB
:100D3400672E2E2E004C6F7720506974636800482C
:100D4400696768205069746368004368616E676509
:100D5400205069746368004368616E676520566F4C
:100D64006C756D65005265736574696E67205375A3
:100D7400636365737300506C6179205265636F72AD
:100D840064696E6700466163746F7279205265739B
:100D9400657400496E636C756465204563686F0013
:100DA4004661737420466F72776172640044656CA7
:0E0DB4006574655265636F7264696E67000056
:00000001FF
