S0150000566F6963655265636F726465722E73726563E3
S113000072C000009EC000009CC000009AC00000A6
S113001098C0000096C0000094C0000092C0000088
S113002090C000008EC000008CC000008AC0000098
S113003088C0000086C0000084C0000082C00000A8
S113004080C000007EC000007CC000007AC00000B8
S113005078C0000076C0000074C0000072C00000C8
S113006070C000006EC000006CC000006AC00000D8
S113007068C0000066C0000064C0000062C00000E8
S113008060C000005EC000005CC000005AC00000F8
S113009058C0000056C0000054C0000052C0000008
S11300A050C000004EC000004CC000004AC0000018
S11300B048C0000046C0000044C0000042C0000028
S11300C040C000003EC000003CC000003AC0000038
S11300D038C0000036C0000034C0000032C0000048
S11300E030C00000EB0511241FBECFEFD1E2DEBF0C
S11300F0CDBF00E00CBF13E0A0E0B2E0ECE5FCE013
S113010000E00BBF02C007900D92A030B107D9F7F1
S113011023E0A0E0B3E001C01D92A530B207E1F7EF
S113012010E0C3E7D0E000E005C021970109802F6B
S1130130FE0157D5C237D10780E00807B1F7DFD0F9
S11301408BC55ECF08958EB18F70962F907F892BCB
S11301508EB98EB18B7F8EB98EB188608EB985E0F1
S11301608A95F1F700008EB1877F8EB98FE193E015
S11301700197F1F700C000008EB190E1699FB001D2
S113018011248F70682B6EB98EB18B7F8EB98EB1AE
S113019088608EB985E08A95F1F700008EB1877F7B
S11301A08EB98FE39FE10197F1F700C00000089535
S11301B08EB18F70962F907F892B8EB98EB184600B
S11301C08EB98EB188608EB985E08A95F1F700000A
S11301D08EB1877F8EB98FE193E00197F1F700C06C
S11301E000008EB190E1699FB00111248F70682BDB
S11301F06EB98EB184608EB98EB188608EB985E097
S11302008A95F1F700008EB1877F8EB98FE39FE165
S11302100197F1F700C000000895CF93DF93EC013C
S11302208FEF8DB92FEF89EF90E0215080409040FF
S1130230E1F700C0000062E0CE0185DF68E2CE0194
S113024082DF6CE0CE017FDF66E0CE017CDF61E01F
S1130250CE0179DF8FE39FE10197F1F700C0000041
S1130260DF91CF910895EF92FF920F931F93CF9355
S1130270DF937C018B01C0E0D0E0F801EC0FFD1F9F
S11302806081662321F0C70193DF2196F6CFDF91C9
S1130290CF911F910F91FF90EF9008950F931F93AB
S11302A0CF93DF938C01E901611107C0403128F439
S11302B04F70642F606847DF09C0613039F4403102
S11302C028F44F70642F606CC8013DDFBE01C80183
S11302D0CADFDF91CF911F910F910895CF93DF93E0
S11302E0EC0161E030DF8FE39FE10197F1F700C09B
S11302F0000060E8CE0127DFDF91CF910895CF930E
S1130300DF931F92CDB7DEB761E070E0CE010196B6
S113031028D0CE01019684D01AB819B8499B04C0DC
S1130320CE010196FAD1FACF4A9B04C0CE010196C0
S1130330F4D2F4CF4B9B04C0CE01019695D0EECFFE
S11303404C9BECCFCE010196D4D3E8CF019741F476
S11303506F3F7F4F29F461E070E080E093E0F2CEDC
S1130360089508950F931F93CF93DF938A01E901B2
S1130370709304036093030380E093E0AFDF2DE107
S113038032E040E060E080E093E088DF980141E003
S113039060E080E093E082DF9E0140E061E080E085
S11303A093E07CDF2FEF84E39CE021508040904079
S11303B0E1F700C00000DF91CF911F910F910895E4
S11303C0EF92FF920F931F93CF93C42F79017093F1
S11303D004036093030380E093E080DF2DE132E0C7
S11303E040E061E080E093E059DF97014C2F60E04A
S11303F080E093E053DF980141E061E080E093E026
S11304004DDF2FEF84E39CE0215080409040E1F7E2
S113041000C00000CF911F910F91FF90EF900895BD
S1130420CF93DF93EC0180E093E0F7DE2FE132E03D
S113043044E060E080E093E031DF2FEF83ED90E370
S1130440215080409040E1F700C0000080E093E03C
S113045045DF28E232E043E352E061E070E0CE01A0
S113046081DFDF91CF910895EF92FF920F931F9355
S1130470CF93DF9300D01F92CDB7DEB77C0180917C
S11304800303909104038130910549F427E232E09B
S113049040E452E064E070E0C70164DF33C18230BD
S11304A09105F1F480910103909102039C012F5F67
S11304B03F4FA901440F551F440F551F240F351FEB
S11304C020503E4FAC01440F551F440F551F480F99
S11304D0591F40505E4F61E170E0C70143DF12C114
S11304E08330910509F580E093E0F8DE20E532E001
S11304F040E060E080E093E0D1DE20E632E040E0DE
S113050061E080E093E0CADE80E190E09093040330
S1130510809303032FEF8EE994E2215080409040B2
S1130520E1F700C00000EEC08730910559F580E086
S113053093E0D4DE2EEA32E045E060E080E093E030
S1130540ADDE4AE0BE016F5F7F4F80911B02909148
S11305501C024FD39E012F5F3F4F47E061E080E0D4
S113056093E09CDE8FE090E0909304038093030378
S11305702FEF89E698E1215080409040E1F700C0D8
S11305800000C0C08B309105A9F480E093E0A6DEA2
S11305902FEF83ED90E3215080409040E1F700C0BD
S11305A0000027E632E048E252E061E170E0C70172
S11305B0D9DEA8C08630910559F405E712E02AE790
S11305C032E043E050E06EE070E0C701F9DE9AC02B
S11305D08830910549F425E832E04FE852E06CE0B8
S11305E070E0C701BFDE8EC08930910559F405E77C
S11305F012E02AE732E043E050E06EE070E0C70129
S1130600DFDE80C08A30910559F405E712E02AE75D
S113061032E043E050E06EE070E0C701D1DE72C02A
S11306208C30910559F405E712E02AE732E043E003
S113063050E06EE070E0C701C3DE64C08D30910508
S113064059F405E712E02AE732E043E050E06EE0B7
S113065070E0C701B5DE56C08E309105F1F480918B
S11306600103909102039C012F5F3F4FA901440FA6
S1130670551F440F551F240F351F20503E4FAC010A
S1130680440F551F440F551F480F591F40505E4FCC
S113069061E170E0C70166DE35C08F30910549F431
S11306A02AE932E047EA52E067E070E0C7015ADE27
S11306B029C080319105E1F480E093E00FDE25EB61
S11306C032E040E060E080E093E0E8DD2FEF8EE987
S11306D094E2215080409040E1F700C0000028E2FD
S11306E032E043E352E061E070E0C7013BDE0AC060
S11306F0419744F027EA32E046EC52E066E070E0CD
S1130700C70130DE0F900F900F900F90DF91CF91C3
S11307101F910F91FF90EF900895CF93DF9300D036
S11307201F92CDB7DEB7609103037091040361306B
S1130730710541F423E332E047E652E063E070E000
S113074011DEE4C06230710541F428E232E043E393
S113075052E061E070E006DED9C06330710541F417
S113076027E632E048E252E062E070E0FBDDCEC012
S11307706430710541F427E232E040E452E064E081
S113078070E0F0DDC3C06730710541F427EA32E060
S113079046EC52E066E070E0E5DDB8C06830710513
S11307A041F42AE932E047EA52E067E070E0DADD3A
S11307B0ADC06930710541F425ED32E04AE952E0FB
S11307C068E070E0CFDDA2C06A30710541F422EE2A
S11307D032E045ED52E069E070E0C4DD97C06B3073
S11307E0710541F42FEE32E042EE52E06AE070E02F
S11307F0B9DD8CC06D30710541F425E832E04FE875
S113080052E06CE070E0AEDD81C06F307105B9F587
S113081080911B0290911C028730910529F001966A
S113082090931C0280931B0280E093E057DD2EEA34
S113083032E045E060E080E093E030DD4AE0BE0174
S11308406F5F7F4F80911B0290911C02D2D19E0159
S11308502F5F3F4F47E061E080E093E01FDD8FE0D2
S113086090E090930403809303032FEF89E698E1CB
S1130870215080409040E1F700C0000047C0613142
S11308807105E9F440910103509102039A012F5F2D
S11308903F4FB901660F771F660F771F260F371F6B
S11308A020503E4FBA01660F771F660F771F460F21
S11308B0571F40505E4F61E170E054DD27C0623144
S11308C0710524F12091010330910203A9014150E3
S11308D051095093020340930103615071097093CD
S11308E0040360930303F901EE0FFF1FEE0FFF1FD4
S11308F02E0F3F1F20503E4FFA01EE0FFF1FEE0F49
S1130900FF1F4E0F5F1F40505E4F2CDD0F900F9066
S11309100F900F90DF91CF910895CF93DF9300D084
S11309201F92CDB7DEB76091030370910403613069
S1130930710541F427E632E048E252E062E070E0FB
S113094011DDD0C06230710541F423E332E047E6A3
S113095052E063E070E006DDC5C06330710541F428
S113096028E232E043E352E061E070E0FBDCBAC02D
S11309706630710541F42AE932E047EA52E067E063
S113098070E0F0DCAFC06730710541F425ED32E072
S11309904AE952E068E070E0E5DCA4C06830710523
S11309A041F422EE32E045ED52E069E070E0DADC39
S11309B099C06930710541F42FEE32E042EE52E005
S11309C06AE070E0CFDC8EC06A30710541F427E242
S11309D032E04FEE52E06BE070E0C4DC83C06C3078
S11309E0710541F427E232E045E852E06DE070E041
S11309F0B9DC78C06F307105B1F580911B0290911C
S1130A001C02009729F0019790931C0280931B020B
S1130A1080E093E063DC2EEA32E045E060E080E0D1
S1130A2093E03CDC4AE0BE016F5F7F4F80911B0284
S1130A3090911C02DED09E012F5F3F4F47E061E0A2
S1130A4080E093E02BDC8FE090E0909304038093AC
S1130A5003032FEF89E698E1215080409040E1F7AD
S1130A6000C000003FC061317105E4F1209119021A
S1130A7030911A022150310940910103509102032F
S1130A80421753076CF09A01220F331F220F331FB2
S1130A90420F531F40505E4F27E232E063DC22C016
S1130AA04F5F5F4F50930203409301036F5F7F4F8B
S1130AB070930403609303039A012F5F3F4FF9017E
S1130AC0EE0FFF1FEE0FFF1F2E0F3F1F20503E4F54
S1130AD0FA01EE0FFF1FEE0FFF1F4E0F5F1F405076
S1130AE05E4F40DC0F900F900F900F90DF91CF91ED
S1130AF008952091030330910403A9014150510941
S1130B004330510540F428E232E043E352E061E02F
S1130B1070E028CC0895A901445051094230510590
S1130B2040F428E232E043E352E061E070E01ACCA2
S1130B3008952131310541F427EA32E048E252E0D8
S1130B4062E070E00FCC0895A90146505109463087
S1130B505105E8F440910103509102039A012F5F7B
S1130B603F4FB901660F771F660F771F260F371F98
S1130B7020503E4FBA01660F771F660F771F460F4E
S1130B80571F40505E4F61E170E0ECCB0895A9011E
S1130B904C5051094230510540F425ED32E04AE908
S1130BA052E068E070E0DECB08952231310541F473
S1130BB02AE932E047EA52E067E070E0D3CB0895D7
S1130BC02031310539F423E332E047E652E063E0B3
S1130BD070E0C8CB08956FEF7FEF81E090E0B6CB73
S1130BE00895EE0FFF1F881F8BBF0790F691E02D2D
S1130BF01994BB274A3031F4992322F4BDE290952D
S1130C0081959F4F01C0BB27FB015527AA27880F59
S1130C10991FAA1FA41710F0A41B83955051B9F76C
S1130C20A05DAA3308F0A95DA193009779F7B111EB
S1130C30B1931192CB0100C0DC01FC01672F7191CB
S1130C407723E1F7329704C07C916D9370836291AE
S10F0C50AE17BF07C8F30895F894FFCF57
S1130C5C415544310041554432004155443300411F
S1130C6C554434004155443500050005003E0057F9
S1130C7C656C636F6D6521005265636F7264696E98
S1130C8C6773005265636F726420566F6963650005
S1130C9C5374617274205265636F7264696E670079
S1130CAC436F6E6669726D20466163746F7279006E
S1130CBC72657365743F00466163746F7279205278
S1130CCC657365740053746F7000506C6179696E50
S1130CDC672E2E2E004C6F77205069746368004881
S1130CEC696768205069746368004368616E67655E
S1130CFC205069746368004368616E676520566FA1
S1130D0C6C756D65005265736574696E67205375F7
S1130D1C636365737300506C6179205265636F7201
S1130D2C64696E6700496E636C756465204563681D
S1130D3C6F004661737420466F727761726400446D
S1130D4C656C6574655265636F7264696E670000E7
S9030000FC
